{
  "contractName": "FundTransfer",
  "abi": [
    {
      "inputs": [],
      "payable": false,
      "stateMutability": "nonpayable",
      "type": "constructor"
    },
    {
      "anonymous": false,
      "inputs": [
        {
          "indexed": true,
          "internalType": "address",
          "name": "toAddress",
          "type": "address"
        },
        {
          "indexed": false,
          "internalType": "uint256",
          "name": "amount",
          "type": "uint256"
        }
      ],
      "name": "TransferEvent",
      "type": "event"
    },
    {
      "constant": false,
      "inputs": [
        {
          "internalType": "address payable",
          "name": "toAddress",
          "type": "address"
        }
      ],
      "name": "fundTransfer",
      "outputs": [],
      "payable": true,
      "stateMutability": "payable",
      "type": "function"
    }
  ],
  "bytecode": "0x608060405234801561001057600080fd5b5061012e806100206000396000f3fe608060405260043610601c5760003560e01c8063cd97b9b5146021575b600080fd5b606060048036036020811015603557600080fd5b81019080803573ffffffffffffffffffffffffffffffffffffffff1690602001909291905050506062565b005b8073ffffffffffffffffffffffffffffffffffffffff166108fc349081150290604051600060405180830381858888f1935050505015801560a7573d6000803e3d6000fd5b508073ffffffffffffffffffffffffffffffffffffffff167fb98a26c1d0427d0e3492e749861c7795bed8f6e7599a65143b5903942e611bb0346040518082815260200191505060405180910390a25056fea265627a7a72315820fd56276079ad2a380fc8d87741db133c4a408e7cf8af86e099c9e03722ea130864736f6c63430005100032",
  "source": "pragma solidity ^0.5.0;\n\ncontract FundTransfer {\n    \n    // state variable\n    \n    constructor() public {\n    }\n    \n    //event to alert after successful transaction\n    event TransferEvent(address indexed toAddress, uint amount);\n    \n    // function to transfer the amount\n    function fundTransfer(address payable toAddress) public payable{\n        toAddress.transfer(msg.value);\n        emit TransferEvent(toAddress, msg.value);\n    }\n    \n}\n",
  "sourcePath": "D:\\Virtual_Gain_Technologies\\Client_Node\\Truffle\\contracts\\FundTransfer.sol",
  "compiler": {
    "name": "solc",
    "version": "0.5.16+commit.9c3226ce.Emscripten.clang"
  },
  "schemaVersion": "3.0.23",
  "updatedAt": "2020-09-15T18:33:54.418Z",
  "networkType": "ethereum",
  "devdoc": {
    "methods": {}
  },
  "userdoc": {
    "methods": {}
  }
}